:020000040000FA
:0400000013EF00F00A
:060008004E82C1EF0CF076
:100018004E80E0CF01F001C0E0FF4E90100065EF88
:020028000CF0DA
:1010000000960032002D2D2D2D2D002E2D2D2D2D55
:10101000002E2E2D2D2D002E2E2E2D2D002E2E2E7F
:101020002E2D002D2D2D2D2E002D2D2D2E2E002D73
:101030002D2E2E2E002D2E2E2E2E002E2E2E2E2E2E
:10104000002D2E2D2D002D2D2E2D002D2E2E2D0080
:101050002E2D2D2E002D2E2D2E002E2E2D2E002E3F
:0B1060002D2E2E000D0A00292000009C
:10106C00BCEC0CF0420E8FEC09F0250E106E800ECD
:10107C000F6E8CEC0AF0000E926E8998899A600EB5
:10108C000E6E000E0F6E6FEC0BF0600E026E000E0B
:10109C00036E01EC0CF002C0C6F003C0C7F0000EEA
:1010AC000001CD6F000ECC6F000ED16F000ED06F13
:1010BC00D5EF08F0600ED025D96E000ED121DA6E76
:1010CC00DF508FEC09F010C0CEF011C0CFF0600EE5
:1010DC000001D025D96E000ED121DA6E200EDE185B
:1010EC00D8A47BEF08F07DEF08F0B4EF08F0600EA9
:1010FC00126E000E136ED0C014F0D1C015F0CCC01F
:10110C0016F0CDC017F0D3EC0BF012C0C8F013C022
:10111C00C9F0C8C006F0C9C007F0C8C002F0C9C009
:10112C0003F001EC0CF002C008F003C009F0E6EC8F
:10113C0009F0010E0001D025CC6F000ED121CD6F2E
:10114C00020E4D6EC70E4C6E880EE82EFED74C2E3E
:10115C00FCD74D2EFAD700D0D2EF08F0CEC006F057
:10116C00CFC007F015EC09F0CEC006F0CFC007F0E9
:10117C00CEC002F0CFC003F001EC0CF002C008F0BE
:10118C0003C009F0E6EC09F0C30E4C6ECD0EE82E50
:10119C00FED74C2EFCD700F00001D04BD12BC65102
:1011AC00D05DD151800A4C6EC751800A4C58D8A0E2
:1011BC00E2EF08F0E4EF08F060EF08F0600E126E5A
:1011CC00000E136EC6C014F0C7C015F0CCC016F0DC
:1011DC00CDC017F0D3EC0BF012C0CAF013C0CBF09B
:1011EC00CAC006F0CBC007F0CAC002F0CBC003F0F7
:1011FC0001EC0CF002C008F003C009F0E6EC09F0B9
:10120C00640E066E100E076E000E096E020E086E4E
:10121C00E6EC09F0899845EF08F013EF00F006C0F2
:10122C0002F007C003F001EC0CF002C00AF003C09E
:10123C000BF0000E0D6E000E0C6E6BEF09F0898832
:10124C000C500624086E0D500720096E08C0F6FFDE
:10125C0009C0F7FF0800F5502E0AD8A438EF09F0A2
:10126C003AEF09F044EF09F0410E086EEE0EE82E4D
:10127C00FED7082EFCD700D060EF09F00C500624E6
:10128C00086E0D500720096E08C0F6FF09C0F7FF65
:10129C000800F5502D0AD8A456EF09F058EF09F0C4
:1012AC0060EF09F0C30E086ECD0EE82EFED7082EA7
:1012BC00FCD700F08998410E086EEE0EE82EFED792
:1012CC00082EFCD700D00C4A0D2A0A500C5C0D508D
:1012DC00800A086E0B50800A0858D8B078EF09F0D5
:1012EC007AEF09F08EEF09F00C500624086E0D50C1
:1012FC000720096E08C0F6FF09C0F7FF0800F5507B
:10130C000009D8A48CEF09F08EEF09F025EF09F055
:10131C001200156E15C008F0096AA4EC0BF0085009
:10132C00166E000E146E6C0E136E000E186E000E00
:10133C00176ED2EF09F017C002F018C003F0000EC0
:10134C00056E030E046E93EC0CF0000E0224D96EA5
:10135C00010E0320DA6E1650DE18D8A4B8EF09F08F
:10136C00BAEF09F0D0EF09F017C002F018C003F083
:10137C00000E056E030E046E93EC0CF0010E0224AD
:10138C00D96E010E0320DA6EDECF10F0DDCF11F036
:10139C00E5EF09F0174A182A1350175C1850800A09
:1013AC00126E1450800A1258D8A0DFEF09F0E1EF4A
:1013BC0009F0A1EF09F0660E106E100E116E1200FE
:1013CC00000E0D6E000E0C6E000E0D6E000E0C6EEF
:1013DC000BEF0AF00C5006240A6E0D5007200B6E12
:1013EC000AC0F6FF0BC0F7FF000EF86E0F0EF76485
:1013FC0003D00800F55005D0F6CFE9FFF7CFEAFF90
:10140C00EF50A6EC0CF00C4A0D2A08500C5C0D5059
:10141C00800A0A6E0950800A0A58D8B018EF0AF0F0
:10142C001AEF0AF039EF0AF00C5006240A6E0D5030
:10143C0007200B6E0AC0F6FF0BC0F7FF000EF86E0C
:10144C000F0EF76403D00800F55005D0F6CFE9FF76
:10145C00F7CFEAFFEF500009D8A437EF0AF039EFC5
:10146C000AF0F0EF09F01200000E0A6E000E0B6E7F
:10147C00000E0C6E000E0D6E0650071008100910B1
:10148C00D8B44BEF0AF04DEF0AF083EF0AF0010EDF
:10149C000E6E57EF0AF0D890063607360836093626
:1014AC000E2A09AE5CEF0AF05EEF0AF051EF0AF07B
:1014BC00D8900A360B360C360D360650025C0750A7
:1014CC0003580850045809500558D8A070EF0AF07A
:1014DC0072EF0AF07BEF0AF00650025E0750035AD7
:1014EC000850045A0950055A0A80D890093208321B
:1014FC00073206320E2E5EEF0AF00AC002F00BC065
:10150C0003F00CC004F00DC005F01200800E946EB8
:10151C00200EAC6E900EAB6EAC84ACA498EF0AF0BF
:10152C009AEF0AF0BCEF0AF0000E026E090E036E81
:10153C003D0E046E000E056E0FC006F010C007F0D5
:10154C00000E07BEFF0E086E096E3AEC0AF0050E8F
:10155C00B5EF0AF0D8900532043203320232E82E8D
:10156C00B0EF0AF00204AF6EDCEF0AF0000E026E70
:10157C00090E036E3D0E046E000E056E0FC006F0D4
:10158C0010C007F0000E07BEFF0E086E096E3AEC95
:10159C000AF0070ED7EF0AF0D89005320432033266
:1015AC000232E82ED2EF0AF00204AF6E120041486C
:1015BC0010423010435510442B10452710465A103A
:1015CC00472510483610492C104A12104B47104C26
:1015DC005F104D08104E26104F07105050105146FA
:1015EC0010525610533110540910554C10561E10F1
:1015FC00574210584B105941105A2A10310B1032C7
:10160C001110331710341D10353B10363510372F91
:10161C001038291039231030051020280000000044
:10162C0000000000000000000000000000000000AE
:10163C00000000000000000000000000000000009E
:10164C0000000000000000000000000006C00CF0CC
:10165C0007C00DF006C002F007C003F001EC0CF05F
:10166C0002500626035007224DEF0BF00A06D8A0B5
:10167C000B0608C0D9FF09C0DAFF06C0E1FF07C09E
:10168C00E2FFDFCFE7FF084A092A064A072A0A5079
:10169C000B10D8B454EF0BF056EF0BF062EF0BF0CD
:1016AC0008C0D9FF09C0DAFFDF50D8A460EF0BF0F7
:1016BC0062EF0BF03CEF0BF006C0D9FF07C0DAFF6E
:1016CC00000EDF6E064A072A0CC006F00DC007F0AC
:1016DC001200B2EC0CF0106E0D0E1018D8B479EF9D
:1016EC000BF07BEF0BF084EF0BF00A0E1018D8A464
:1016FC0082EF0BF084EF0BF096EF0BF00EC0D9FFDE
:10170C000FC0DAFF000EDF6E640E066E100E076E51
:10171C00000E096E020E086EE6EC09F0A3EF0BF05A
:10172C001050A6EC0CF00EC0D9FF0FC0DAFF10C0A1
:10173C00DFFF0E4A0F2A6FEF0BF012009F0E0A6E9E
:10174C00FF0E0B6E08C00CF009C00DF00A500C26F1
:10175C000B500D220D500AE11A0E0C5CD8A0B9EFFB
:10176C000BF0BCEF0BF0010EBDEF0BF0000E0E6E8C
:10177C000F6A0E500F10D8B4C6EF0BF0C8EF0BF079
:10178C00CEEF0BF05F0E0814086E096AD2EF0BF067
:10179C0008C008F009C009F0120021EE6CF010EE40
:1017AC0018F0310EDBCFE3FFE806FCE2180E066EF4
:1017BC00000E076E16501224086E17501320096E77
:1017CC001650145C0A6E175015580B6E2CEC0BF05F
:1017DC00180E0E6E000E0F6E670E106E100E116E40
:1017EC007CEC0CF00EC04AF00FC04BF04AC012F06B
:1017FC004BC013F0120002C004F003C005F009EF57
:10180C000CF0024A032A02C0F6FF03C0F7FF000ED9
:10181C00F86E0F0EF76403D00800F55005D0F6CF24
:10182C00E9FFF7CFEAFFEF500009D8A420EF0CF046
:10183C0022EF0CF007EF0CF00450025C026E055026
:10184C000358036E120008C00AF009C00BF006C062
:10185C000CF007C00DF00AC0F6FF0BC0F7FF0A4AE8
:10186C000B2A0CC0D9FF0DC0DAFF0C4A0D2A080058
:10187C00F5CFDFFFDF50D8A446EF0CF048EF0CF0AB
:10188C0031EF0CF012009F0E046EFF0E056E02C0BD
:10189C0006F003C007F00450062605500722075037
:1018AC000AE11A0E065CD8A05EEF0CF061EF0CF0AA
:1018BC00010E62EF0CF0000E026E036A1200BA0EFB
:1018CC00F66E150EF76E000EF86E01EE00F010EECF
:1018DC009EF00900F5CFEEFFE550E150FAE14E9095
:1018EC004E92000EF86E000136EF08F00EC002F0BA
:1018FC000FC003F001EC0CF002500E24066E0350E6
:10190C000F20076E10C008F011C009F029EC0CF084
:10191C000EC00EF00FC00FF0120002500402F3CFF5
:10192C0006F0F4CF07F002500502F35007260350DF
:10193C000402F350072606C002F007C003F01200A1
:10194C00026E9EA8ACEF0CF0AEEF0CF0A7EF0CF013
:10195C009E9802C0ADFF12009EAAB7EF0CF0B9EF33
:10196C000CF0B2EF0CF09E9AAE501200D3508F0BCD
:0A197C005009D36E12004E921100C4
:020000040020DA
:08000000FFFFFFFFFFFFFFFF00
:020000040030CA
:0E0000001D087F7FF98B91FFFFC0FFE0FF40DE
:00000001FF
